{
  "contractName": "Event",
  "abi": [
    {
      "constant": true,
      "inputs": [],
      "name": "name",
      "outputs": [
        {
          "name": "",
          "type": "string"
        }
      ],
      "payable": false,
      "stateMutability": "view",
      "type": "function"
    },
    {
      "constant": true,
      "inputs": [],
      "name": "ticketPrice",
      "outputs": [
        {
          "name": "",
          "type": "uint256"
        }
      ],
      "payable": false,
      "stateMutability": "view",
      "type": "function"
    },
    {
      "constant": true,
      "inputs": [],
      "name": "date",
      "outputs": [
        {
          "name": "",
          "type": "string"
        }
      ],
      "payable": false,
      "stateMutability": "view",
      "type": "function"
    },
    {
      "constant": false,
      "inputs": [
        {
          "name": "_first",
          "type": "string"
        },
        {
          "name": "_last",
          "type": "string"
        },
        {
          "name": "_email",
          "type": "string"
        }
      ],
      "name": "register",
      "outputs": [],
      "payable": true,
      "stateMutability": "payable",
      "type": "function"
    },
    {
      "constant": true,
      "inputs": [],
      "name": "location",
      "outputs": [
        {
          "name": "",
          "type": "string"
        }
      ],
      "payable": false,
      "stateMutability": "view",
      "type": "function"
    },
    {
      "constant": false,
      "inputs": [
        {
          "name": "_buyer",
          "type": "address"
        }
      ],
      "name": "search",
      "outputs": [
        {
          "name": "",
          "type": "string"
        },
        {
          "name": "",
          "type": "string"
        },
        {
          "name": "",
          "type": "string"
        },
        {
          "name": "",
          "type": "bool"
        }
      ],
      "payable": false,
      "stateMutability": "nonpayable",
      "type": "function"
    },
    {
      "constant": false,
      "inputs": [
        {
          "name": "_buyer",
          "type": "address"
        }
      ],
      "name": "checkin",
      "outputs": [
        {
          "name": "",
          "type": "string"
        },
        {
          "name": "",
          "type": "string"
        },
        {
          "name": "",
          "type": "string"
        },
        {
          "name": "",
          "type": "bool"
        }
      ],
      "payable": false,
      "stateMutability": "nonpayable",
      "type": "function"
    },
    {
      "constant": true,
      "inputs": [],
      "name": "ticketNum",
      "outputs": [
        {
          "name": "",
          "type": "uint256"
        }
      ],
      "payable": false,
      "stateMutability": "view",
      "type": "function"
    },
    {
      "constant": true,
      "inputs": [],
      "name": "holder",
      "outputs": [
        {
          "name": "",
          "type": "address"
        }
      ],
      "payable": false,
      "stateMutability": "view",
      "type": "function"
    },
    {
      "constant": true,
      "inputs": [
        {
          "name": "_name",
          "type": "string"
        },
        {
          "name": "_location",
          "type": "string"
        },
        {
          "name": "_date",
          "type": "string"
        },
        {
          "name": "_ticketNum",
          "type": "uint256"
        },
        {
          "name": "_ticketPrice",
          "type": "uint256"
        }
      ],
      "name": "Attendees",
      "outputs": [
        {
          "name": "first",
          "type": "string"
        },
        {
          "name": "last",
          "type": "string"
        },
        {
          "name": "email",
          "type": "string"
        },
        {
          "name": "checkedin",
          "type": "bool"
        }
      ],
      "payable": true,
      "stateMutability": "payable",
      "type": "constructor"
    },
    {
      "inputs": [
        {
          "name": "_name",
          "type": "string"
        },
        {
          "name": "_location",
          "type": "string"
        },
        {
          "name": "_date",
          "type": "string"
        },
        {
          "name": "_ticketNum",
          "type": "uint256"
        },
        {
          "name": "_ticketPrice",
          "type": "uint256"
        }
      ],
      "payable": true,
      "stateMutability": "payable",
      "type": "constructor"
    }
  ],
  "bytecode": "0x60606040526000600455604051620019b9380380620019b98339810160405280805182019190602001805182019190602001805182019190602001805190602001909190805190602001909190505060008551141515156200006057600080fd5b60008451141515156200007257600080fd5b60008351141515156200008457600080fd5b600082141515156200009557600080fd5b60008110151515620000a657600080fd5b336000806101000a81548173ffffffffffffffffffffffffffffffffffffffff021916908373ffffffffffffffffffffffffffffffffffffffff1602179055508460019080519060200190620000fe9291906200014a565b508360029080519060200190620001179291906200014a565b508260039080519060200190620001309291906200014a565b5081600481905550806005819055505050505050620001f9565b828054600181600116156101000203166002900490600052602060002090601f016020900481019282601f106200018d57805160ff1916838001178555620001be565b82800160010185558215620001be579182015b82811115620001bd578251825591602001919060010190620001a0565b5b509050620001cd9190620001d1565b5090565b620001f691905b80821115620001f2576000816000905550600101620001d8565b5090565b90565b6117b080620002096000396000f300606060405260043610610099576000357c0100000000000000000000000000000000000000000000000000000000900463ffffffff16806306fdde031461009e5780631209b1f61461012c578063323046b1146101555780634cd08d03146101e3578063516f279e146102bb578063657a251214610349578063a35fdcb6146104de578063aa099a6b14610673578063e534155d1461069c575b600080fd5b34156100a957600080fd5b6100b16106f1565b6040518080602001828103825283818151815260200191508051906020019080838360005b838110156100f15780820151818401526020810190506100d6565b50505050905090810190601f16801561011e5780820380516001836020036101000a031916815260200191505b509250505060405180910390f35b341561013757600080fd5b61013f61078f565b6040518082815260200191505060405180910390f35b341561016057600080fd5b610168610795565b6040518080602001828103825283818151815260200191508051906020019080838360005b838110156101a857808201518184015260208101905061018d565b50505050905090810190601f1680156101d55780820380516001836020036101000a031916815260200191505b509250505060405180910390f35b6102b9600480803590602001908201803590602001908080601f0160208091040260200160405190810160405280939291908181526020018383808284378201915050505050509190803590602001908201803590602001908080601f0160208091040260200160405190810160405280939291908181526020018383808284378201915050505050509190803590602001908201803590602001908080601f01602080910402602001604051908101604052809392919081815260200183838082843782019150505050505091905050610833565b005b34156102c657600080fd5b6102ce610989565b6040518080602001828103825283818151815260200191508051906020019080838360005b8381101561030e5780820151818401526020810190506102f3565b50505050905090810190601f16801561033b5780820380516001836020036101000a031916815260200191505b509250505060405180910390f35b341561035457600080fd5b610380600480803573ffffffffffffffffffffffffffffffffffffffff16906020019091905050610a27565b6040518080602001806020018060200185151515158152602001848103845288818151815260200191508051906020019080838360005b838110156103d25780820151818401526020810190506103b7565b50505050905090810190601f1680156103ff5780820380516001836020036101000a031916815260200191505b50848103835287818151815260200191508051906020019080838360005b8381101561043857808201518184015260208101905061041d565b50505050905090810190601f1680156104655780820380516001836020036101000a031916815260200191505b50848103825286818151815260200191508051906020019080838360005b8381101561049e578082015181840152602081019050610483565b50505050905090810190601f1680156104cb5780820380516001836020036101000a031916815260200191505b5097505050505050505060405180910390f35b34156104e957600080fd5b610515600480803573ffffffffffffffffffffffffffffffffffffffff16906020019091905050611221565b6040518080602001806020018060200185151515158152602001848103845288818151815260200191508051906020019080838360005b8381101561056757808201518184015260208101905061054c565b50505050905090810190601f1680156105945780820380516001836020036101000a031916815260200191505b50848103835287818151815260200191508051906020019080838360005b838110156105cd5780820151818401526020810190506105b2565b50505050905090810190601f1680156105fa5780820380516001836020036101000a031916815260200191505b50848103825286818151815260200191508051906020019080838360005b83811015610633578082015181840152602081019050610618565b50505050905090810190601f1680156106605780820380516001836020036101000a031916815260200191505b5097505050505050505060405180910390f35b341561067e57600080fd5b61068661164f565b6040518082815260200191505060405180910390f35b34156106a757600080fd5b6106af611655565b604051808273ffffffffffffffffffffffffffffffffffffffff1673ffffffffffffffffffffffffffffffffffffffff16815260200191505060405180910390f35b60018054600181600116156101000203166002900480601f0160208091040260200160405190810160405280929190818152602001828054600181600116156101000203166002900480156107875780601f1061075c57610100808354040283529160200191610787565b820191906000526020600020905b81548152906001019060200180831161076a57829003601f168201915b505050505081565b60055481565b60038054600181600116156101000203166002900480601f01602080910402602001604051908101604052809291908181526020018280546001816001161561010002031660029004801561082b5780601f106108005761010080835404028352916020019161082b565b820191906000526020600020905b81548152906001019060200180831161080e57829003601f168201915b505050505081565b61083b61167a565b60006001600454031015151561085057600080fd5b6000845111151561086057600080fd5b6000835111151561087057600080fd5b6000825111151561088057600080fd5b600554341015151561089157600080fd5b838160000181905250828160200181905250818160400181905250600081606001901515908115158152505060016004540360048190555080600660003373ffffffffffffffffffffffffffffffffffffffff1673ffffffffffffffffffffffffffffffffffffffff16815260200190815260200160002060008201518160000190805190602001906109259291906116b7565b5060208201518160010190805190602001906109429291906116b7565b50604082015181600201908051906020019061095f9291906116b7565b5060608201518160030160006101000a81548160ff02191690831515021790555090505050505050565b60028054600181600116156101000203166002900480601f016020809104026020016040519081016040528092919081815260200182805460018160011615610100020316600290048015610a1f5780601f106109f457610100808354040283529160200191610a1f565b820191906000526020600020905b815481529060010190602001808311610a0257829003601f168201915b505050505081565b610a2f611737565b610a37611737565b610a3f611737565b600080600660008773ffffffffffffffffffffffffffffffffffffffff1673ffffffffffffffffffffffffffffffffffffffff168152602001908152602001600020600201805460018160011615610100020316600290049050111515610aa557600080fd5b8473ffffffffffffffffffffffffffffffffffffffff163373ffffffffffffffffffffffffffffffffffffffff161415610dd057600660008673ffffffffffffffffffffffffffffffffffffffff1673ffffffffffffffffffffffffffffffffffffffff168152602001908152602001600020600001600660008773ffffffffffffffffffffffffffffffffffffffff1673ffffffffffffffffffffffffffffffffffffffff168152602001908152602001600020600101600660008873ffffffffffffffffffffffffffffffffffffffff1673ffffffffffffffffffffffffffffffffffffffff168152602001908152602001600020600201600660008973ffffffffffffffffffffffffffffffffffffffff1673ffffffffffffffffffffffffffffffffffffffff16815260200190815260200160002060030160009054906101000a900460ff16838054600181600116156101000203166002900480601f016020809104026020016040519081016040528092919081815260200182805460018160011615610100020316600290048015610c845780601f10610c5957610100808354040283529160200191610c84565b820191906000526020600020905b815481529060010190602001808311610c6757829003601f168201915b50505050509350828054600181600116156101000203166002900480601f016020809104026020016040519081016040528092919081815260200182805460018160011615610100020316600290048015610d205780601f10610cf557610100808354040283529160200191610d20565b820191906000526020600020905b815481529060010190602001808311610d0357829003601f168201915b50505050509250818054600181600116156101000203166002900480601f016020809104026020016040519081016040528092919081815260200182805460018160011615610100020316600290048015610dbc5780601f10610d9157610100808354040283529160200191610dbc565b820191906000526020600020905b815481529060010190602001808311610d9f57829003601f168201915b50505050509150935093509350935061121a565b6000809054906101000a900473ffffffffffffffffffffffffffffffffffffffff1673ffffffffffffffffffffffffffffffffffffffff163373ffffffffffffffffffffffffffffffffffffffff16141561111c57600660008673ffffffffffffffffffffffffffffffffffffffff1673ffffffffffffffffffffffffffffffffffffffff168152602001908152602001600020600001600660008773ffffffffffffffffffffffffffffffffffffffff1673ffffffffffffffffffffffffffffffffffffffff168152602001908152602001600020600101600660008873ffffffffffffffffffffffffffffffffffffffff1673ffffffffffffffffffffffffffffffffffffffff168152602001908152602001600020600201600660008973ffffffffffffffffffffffffffffffffffffffff1673ffffffffffffffffffffffffffffffffffffffff16815260200190815260200160002060030160009054906101000a900460ff16838054600181600116156101000203166002900480601f016020809104026020016040519081016040528092919081815260200182805460018160011615610100020316600290048015610fd05780601f10610fa557610100808354040283529160200191610fd0565b820191906000526020600020905b815481529060010190602001808311610fb357829003601f168201915b50505050509350828054600181600116156101000203166002900480601f01602080910402602001604051908101604052809291908181526020018280546001816001161561010002031660029004801561106c5780601f106110415761010080835404028352916020019161106c565b820191906000526020600020905b81548152906001019060200180831161104f57829003601f168201915b50505050509250818054600181600116156101000203166002900480601f0160208091040260200160405190810160405280929190818152602001828054600181600116156101000203166002900480156111085780601f106110dd57610100808354040283529160200191611108565b820191906000526020600020905b8154815290600101906020018083116110eb57829003601f168201915b50505050509150935093509350935061121a565b600660008673ffffffffffffffffffffffffffffffffffffffff1673ffffffffffffffffffffffffffffffffffffffff16815260200190815260200160002060030160009054906101000a900460ff166040805190810160405280600781526020017f5072697661746500000000000000000000000000000000000000000000000000815250906040805190810160405280600781526020017f5072697661746500000000000000000000000000000000000000000000000000815250906040805190810160405280600781526020017f50726976617465000000000000000000000000000000000000000000000000008152509093509350935093505b9193509193565b611229611737565b611231611737565b611239611737565b60008060009054906101000a900473ffffffffffffffffffffffffffffffffffffffff1673ffffffffffffffffffffffffffffffffffffffff163373ffffffffffffffffffffffffffffffffffffffff1614151561129657600080fd5b6000600660008773ffffffffffffffffffffffffffffffffffffffff1673ffffffffffffffffffffffffffffffffffffffff1681526020019081526020016000206002018054600181600116156101000203166002900490501115156112fb57600080fd5b6001600660008773ffffffffffffffffffffffffffffffffffffffff1673ffffffffffffffffffffffffffffffffffffffff16815260200190815260200160002060030160006101000a81548160ff021916908315150217905550600660008673ffffffffffffffffffffffffffffffffffffffff1673ffffffffffffffffffffffffffffffffffffffff168152602001908152602001600020600001600660008773ffffffffffffffffffffffffffffffffffffffff1673ffffffffffffffffffffffffffffffffffffffff168152602001908152602001600020600101600660008873ffffffffffffffffffffffffffffffffffffffff1673ffffffffffffffffffffffffffffffffffffffff168152602001908152602001600020600201600660008973ffffffffffffffffffffffffffffffffffffffff1673ffffffffffffffffffffffffffffffffffffffff16815260200190815260200160002060030160009054906101000a900460ff16838054600181600116156101000203166002900480601f0160208091040260200160405190810160405280929190818152602001828054600181600116156101000203166002900480156115015780601f106114d657610100808354040283529160200191611501565b820191906000526020600020905b8154815290600101906020018083116114e457829003601f168201915b50505050509350828054600181600116156101000203166002900480601f01602080910402602001604051908101604052809291908181526020018280546001816001161561010002031660029004801561159d5780601f106115725761010080835404028352916020019161159d565b820191906000526020600020905b81548152906001019060200180831161158057829003601f168201915b50505050509250818054600181600116156101000203166002900480601f0160208091040260200160405190810160405280929190818152602001828054600181600116156101000203166002900480156116395780601f1061160e57610100808354040283529160200191611639565b820191906000526020600020905b81548152906001019060200180831161161c57829003601f168201915b5050505050915093509350935093509193509193565b60045481565b6000809054906101000a900473ffffffffffffffffffffffffffffffffffffffff1681565b60806040519081016040528061168e61174b565b815260200161169b61174b565b81526020016116a861174b565b81526020016000151581525090565b828054600181600116156101000203166002900490600052602060002090601f016020900481019282601f106116f857805160ff1916838001178555611726565b82800160010185558215611726579182015b8281111561172557825182559160200191906001019061170a565b5b509050611733919061175f565b5090565b602060405190810160405280600081525090565b602060405190810160405280600081525090565b61178191905b8082111561177d576000816000905550600101611765565b5090565b905600a165627a7a7230582076ca8c5a2d35b66f92afb4b1bc0c20c9f046067de1aea43815deb854b2340ea30029",
  "source": "pragma solidity ^0.4.4;\n\ncontract Event {\n  address public holder;\n  string  public name;\n  string  public location;\n  string  public date;\n  uint    public ticketNum = 0;\n  uint    public ticketPrice;\n  \n  struct Attendee {\n    string    first;\n    string    last;\n    string    email;\n    bool      checkedin;\n  }\n\n  mapping(address => Attendee) private Attendees;\n\n  modifier isHolder() {\n    require(msg.sender == holder);\n    _;\n  }\n\n  function Event(string _name, string _location,string _date, uint _ticketNum, uint _ticketPrice) public payable {\n    // constructor\n    require(bytes(_name).length != 0);\n    require(bytes(_location).length != 0);\n    require(bytes(_date).length != 0);\n    require(_ticketNum != 0);\n    require(_ticketPrice >= 0);\n    \n    holder = msg.sender;\n    name = _name;\n    location = _location;\n    date = _date;\n    ticketNum = _ticketNum;\n    ticketPrice = _ticketPrice;\n  }\n\n  function register(string _first, string _last, string _email) public payable {\n    // constructor\n    require(ticketNum - 1 >= 0);\n    require(bytes(_first).length > 0);\n    require(bytes(_last).length > 0);\n    require(bytes(_email).length > 0);\n    require(msg.value >= ticketPrice);\n\n    Attendee memory currentAttendee;\n    currentAttendee.first = _first;\n    currentAttendee.last = _last;\n    currentAttendee.email = _email;\n    currentAttendee.checkedin = false;\n    \n    ticketNum = ticketNum - 1;\n    Attendees[msg.sender] = currentAttendee;\n  }\n\n  // search with address\n  function search(address _buyer) \n    public \n    returns (string, string, string, bool)\n  {\n    require(bytes(Attendees[_buyer].email).length > 0);\n    if (msg.sender == _buyer) {\n      return (Attendees[_buyer].first, Attendees[_buyer].last, Attendees[_buyer].email, Attendees[_buyer].checkedin);\n    }\n    if (msg.sender == holder) {\n      return (Attendees[_buyer].first, Attendees[_buyer].last, Attendees[_buyer].email, Attendees[_buyer].checkedin);\n    }\n    return (\"Private\", \"Private\", \"Private\", Attendees[_buyer].checkedin);\n  }\n\n  function checkin(address _buyer) isHolder public returns (string, string, string, bool) {\n    require(bytes(Attendees[_buyer].email).length > 0);\n    Attendees[_buyer].checkedin = true;\n    return (Attendees[_buyer].first, Attendees[_buyer].last, Attendees[_buyer].email, Attendees[_buyer].checkedin);\n  }\n  \n}\n",
  "sourcePath": "/Users/andy/Projects/etherbrite/contracts/event-contracts/contracts/Event.sol",
  "compiler": {
    "name": "solc",
    "version": "0.4.18+commit.9cf6e910.Emscripten.clang"
  },
  "schemaVersion": "1.0.1",
  "updatedAt": "2017-12-27T04:40:47.372Z"
}