{
  "contractName": "Event",
  "abi": [
    {
      "constant": true,
      "inputs": [],
      "name": "name",
      "outputs": [
        {
          "name": "",
          "type": "string"
        }
      ],
      "payable": false,
      "stateMutability": "view",
      "type": "function"
    },
    {
      "constant": true,
      "inputs": [],
      "name": "ticketPrice",
      "outputs": [
        {
          "name": "",
          "type": "uint256"
        }
      ],
      "payable": false,
      "stateMutability": "view",
      "type": "function"
    },
    {
      "constant": true,
      "inputs": [],
      "name": "date",
      "outputs": [
        {
          "name": "",
          "type": "string"
        }
      ],
      "payable": false,
      "stateMutability": "view",
      "type": "function"
    },
    {
      "constant": false,
      "inputs": [
        {
          "name": "_first",
          "type": "string"
        },
        {
          "name": "_last",
          "type": "string"
        },
        {
          "name": "_email",
          "type": "string"
        }
      ],
      "name": "register",
      "outputs": [],
      "payable": true,
      "stateMutability": "payable",
      "type": "function"
    },
    {
      "constant": true,
      "inputs": [],
      "name": "location",
      "outputs": [
        {
          "name": "",
          "type": "string"
        }
      ],
      "payable": false,
      "stateMutability": "view",
      "type": "function"
    },
    {
      "constant": false,
      "inputs": [
        {
          "name": "_buyer",
          "type": "address"
        }
      ],
      "name": "search",
      "outputs": [
        {
          "name": "",
          "type": "string"
        },
        {
          "name": "",
          "type": "string"
        },
        {
          "name": "",
          "type": "string"
        },
        {
          "name": "",
          "type": "bool"
        }
      ],
      "payable": false,
      "stateMutability": "nonpayable",
      "type": "function"
    },
    {
      "constant": false,
      "inputs": [
        {
          "name": "_buyer",
          "type": "address"
        }
      ],
      "name": "checkin",
      "outputs": [
        {
          "name": "",
          "type": "string"
        },
        {
          "name": "",
          "type": "string"
        },
        {
          "name": "",
          "type": "string"
        },
        {
          "name": "",
          "type": "bool"
        }
      ],
      "payable": false,
      "stateMutability": "nonpayable",
      "type": "function"
    },
    {
      "constant": true,
      "inputs": [],
      "name": "ticketNum",
      "outputs": [
        {
          "name": "",
          "type": "uint256"
        }
      ],
      "payable": false,
      "stateMutability": "view",
      "type": "function"
    },
    {
      "constant": true,
      "inputs": [],
      "name": "holder",
      "outputs": [
        {
          "name": "",
          "type": "address"
        }
      ],
      "payable": false,
      "stateMutability": "view",
      "type": "function"
    },
    {
      "inputs": [
        {
          "name": "_name",
          "type": "string"
        },
        {
          "name": "_location",
          "type": "string"
        },
        {
          "name": "_date",
          "type": "string"
        },
        {
          "name": "_ticketNum",
          "type": "uint256"
        },
        {
          "name": "_ticketPrice",
          "type": "uint256"
        }
      ],
      "payable": true,
      "stateMutability": "payable",
      "type": "constructor"
    },
    {
      "anonymous": false,
      "inputs": [],
      "name": "ContractCreated",
      "type": "event"
    },
    {
      "anonymous": false,
      "inputs": [
        {
          "indexed": false,
          "name": "first",
          "type": "string"
        },
        {
          "indexed": false,
          "name": "last",
          "type": "string"
        },
        {
          "indexed": false,
          "name": "email",
          "type": "string"
        },
        {
          "indexed": false,
          "name": "checkedin",
          "type": "bool"
        }
      ],
      "name": "NewRegistration",
      "type": "event"
    },
    {
      "anonymous": false,
      "inputs": [
        {
          "indexed": false,
          "name": "buyer",
          "type": "address"
        },
        {
          "indexed": false,
          "name": "checkedin",
          "type": "bool"
        }
      ],
      "name": "CheckedIn",
      "type": "event"
    }
  ],
  "bytecode": "0x6060604052600060045560405162001cd038038062001cd08339810160405280805182019190602001805182019190602001805182019190602001805190602001909190805190602001909190505060008551141515156200006057600080fd5b60008451141515156200007257600080fd5b60008351141515156200008457600080fd5b600082141515156200009557600080fd5b60008110151515620000a657600080fd5b336000806101000a81548173ffffffffffffffffffffffffffffffffffffffff021916908373ffffffffffffffffffffffffffffffffffffffff1602179055508460019080519060200190620000fe92919062000176565b5083600290805190602001906200011792919062000176565b5082600390805190602001906200013092919062000176565b5081600481905550806005819055507fabd60e51a18b36604f00b5547417cf9051cc5c3a2e80e68206296e14be19f0bc60405160405180910390a1505050505062000225565b828054600181600116156101000203166002900490600052602060002090601f016020900481019282601f10620001b957805160ff1916838001178555620001ea565b82800160010185558215620001ea579182015b82811115620001e9578251825591602001919060010190620001cc565b5b509050620001f99190620001fd565b5090565b6200022291905b808211156200021e57600081600090555060010162000204565b5090565b90565b611a9b80620002356000396000f300606060405260043610610099576000357c0100000000000000000000000000000000000000000000000000000000900463ffffffff16806306fdde031461009e5780631209b1f61461012c578063323046b1146101555780634cd08d03146101e3578063516f279e146102bb578063657a251214610349578063a35fdcb6146104de578063aa099a6b14610673578063e534155d1461069c575b600080fd5b34156100a957600080fd5b6100b16106f1565b6040518080602001828103825283818151815260200191508051906020019080838360005b838110156100f15780820151818401526020810190506100d6565b50505050905090810190601f16801561011e5780820380516001836020036101000a031916815260200191505b509250505060405180910390f35b341561013757600080fd5b61013f61078f565b6040518082815260200191505060405180910390f35b341561016057600080fd5b610168610795565b6040518080602001828103825283818151815260200191508051906020019080838360005b838110156101a857808201518184015260208101905061018d565b50505050905090810190601f1680156101d55780820380516001836020036101000a031916815260200191505b509250505060405180910390f35b6102b9600480803590602001908201803590602001908080601f0160208091040260200160405190810160405280939291908181526020018383808284378201915050505050509190803590602001908201803590602001908080601f0160208091040260200160405190810160405280939291908181526020018383808284378201915050505050509190803590602001908201803590602001908080601f01602080910402602001604051908101604052809392919081815260200183838082843782019150505050505091905050610833565b005b34156102c657600080fd5b6102ce610c74565b6040518080602001828103825283818151815260200191508051906020019080838360005b8381101561030e5780820151818401526020810190506102f3565b50505050905090810190601f16801561033b5780820380516001836020036101000a031916815260200191505b509250505060405180910390f35b341561035457600080fd5b610380600480803573ffffffffffffffffffffffffffffffffffffffff16906020019091905050610d12565b6040518080602001806020018060200185151515158152602001848103845288818151815260200191508051906020019080838360005b838110156103d25780820151818401526020810190506103b7565b50505050905090810190601f1680156103ff5780820380516001836020036101000a031916815260200191505b50848103835287818151815260200191508051906020019080838360005b8381101561043857808201518184015260208101905061041d565b50505050905090810190601f1680156104655780820380516001836020036101000a031916815260200191505b50848103825286818151815260200191508051906020019080838360005b8381101561049e578082015181840152602081019050610483565b50505050905090810190601f1680156104cb5780820380516001836020036101000a031916815260200191505b5097505050505050505060405180910390f35b34156104e957600080fd5b610515600480803573ffffffffffffffffffffffffffffffffffffffff1690602001909190505061150c565b6040518080602001806020018060200185151515158152602001848103845288818151815260200191508051906020019080838360005b8381101561056757808201518184015260208101905061054c565b50505050905090810190601f1680156105945780820380516001836020036101000a031916815260200191505b50848103835287818151815260200191508051906020019080838360005b838110156105cd5780820151818401526020810190506105b2565b50505050905090810190601f1680156105fa5780820380516001836020036101000a031916815260200191505b50848103825286818151815260200191508051906020019080838360005b83811015610633578082015181840152602081019050610618565b50505050905090810190601f1680156106605780820380516001836020036101000a031916815260200191505b5097505050505050505060405180910390f35b341561067e57600080fd5b61068661193a565b6040518082815260200191505060405180910390f35b34156106a757600080fd5b6106af611940565b604051808273ffffffffffffffffffffffffffffffffffffffff1673ffffffffffffffffffffffffffffffffffffffff16815260200191505060405180910390f35b60018054600181600116156101000203166002900480601f0160208091040260200160405190810160405280929190818152602001828054600181600116156101000203166002900480156107875780601f1061075c57610100808354040283529160200191610787565b820191906000526020600020905b81548152906001019060200180831161076a57829003601f168201915b505050505081565b60055481565b60038054600181600116156101000203166002900480601f01602080910402602001604051908101604052809291908181526020018280546001816001161561010002031660029004801561082b5780601f106108005761010080835404028352916020019161082b565b820191906000526020600020905b81548152906001019060200180831161080e57829003601f168201915b505050505081565b61083b611965565b60006001600454031015151561085057600080fd5b6000845111151561086057600080fd5b6000835111151561087057600080fd5b6000825111151561088057600080fd5b600554341015151561089157600080fd5b838160000181905250828160200181905250818160400181905250600081606001901515908115158152505060016004540360048190555080600660003373ffffffffffffffffffffffffffffffffffffffff1673ffffffffffffffffffffffffffffffffffffffff16815260200190815260200160002060008201518160000190805190602001906109259291906119a2565b5060208201518160010190805190602001906109429291906119a2565b50604082015181600201908051906020019061095f9291906119a2565b5060608201518160030160006101000a81548160ff0219169083151502179055509050507f03bbb64e86e240ab63e8c55826d8264b0f32f121c12630d48286f8b7d803fb58600660003373ffffffffffffffffffffffffffffffffffffffff1673ffffffffffffffffffffffffffffffffffffffff168152602001908152602001600020600001600660003373ffffffffffffffffffffffffffffffffffffffff1673ffffffffffffffffffffffffffffffffffffffff168152602001908152602001600020600101600660003373ffffffffffffffffffffffffffffffffffffffff1673ffffffffffffffffffffffffffffffffffffffff168152602001908152602001600020600201600660003373ffffffffffffffffffffffffffffffffffffffff1673ffffffffffffffffffffffffffffffffffffffff16815260200190815260200160002060030160009054906101000a900460ff166040518080602001806020018060200185151515158152602001848103845288818154600181600116156101000203166002900481526020019150805460018160011615610100020316600290048015610b555780601f10610b2a57610100808354040283529160200191610b55565b820191906000526020600020905b815481529060010190602001808311610b3857829003601f168201915b5050848103835287818154600181600116156101000203166002900481526020019150805460018160011615610100020316600290048015610bd85780601f10610bad57610100808354040283529160200191610bd8565b820191906000526020600020905b815481529060010190602001808311610bbb57829003601f168201915b5050848103825286818154600181600116156101000203166002900481526020019150805460018160011615610100020316600290048015610c5b5780601f10610c3057610100808354040283529160200191610c5b565b820191906000526020600020905b815481529060010190602001808311610c3e57829003601f168201915b505097505050505050505060405180910390a150505050565b60028054600181600116156101000203166002900480601f016020809104026020016040519081016040528092919081815260200182805460018160011615610100020316600290048015610d0a5780601f10610cdf57610100808354040283529160200191610d0a565b820191906000526020600020905b815481529060010190602001808311610ced57829003601f168201915b505050505081565b610d1a611a22565b610d22611a22565b610d2a611a22565b600080600660008773ffffffffffffffffffffffffffffffffffffffff1673ffffffffffffffffffffffffffffffffffffffff168152602001908152602001600020600201805460018160011615610100020316600290049050111515610d9057600080fd5b8473ffffffffffffffffffffffffffffffffffffffff163373ffffffffffffffffffffffffffffffffffffffff1614156110bb57600660008673ffffffffffffffffffffffffffffffffffffffff1673ffffffffffffffffffffffffffffffffffffffff168152602001908152602001600020600001600660008773ffffffffffffffffffffffffffffffffffffffff1673ffffffffffffffffffffffffffffffffffffffff168152602001908152602001600020600101600660008873ffffffffffffffffffffffffffffffffffffffff1673ffffffffffffffffffffffffffffffffffffffff168152602001908152602001600020600201600660008973ffffffffffffffffffffffffffffffffffffffff1673ffffffffffffffffffffffffffffffffffffffff16815260200190815260200160002060030160009054906101000a900460ff16838054600181600116156101000203166002900480601f016020809104026020016040519081016040528092919081815260200182805460018160011615610100020316600290048015610f6f5780601f10610f4457610100808354040283529160200191610f6f565b820191906000526020600020905b815481529060010190602001808311610f5257829003601f168201915b50505050509350828054600181600116156101000203166002900480601f01602080910402602001604051908101604052809291908181526020018280546001816001161561010002031660029004801561100b5780601f10610fe05761010080835404028352916020019161100b565b820191906000526020600020905b815481529060010190602001808311610fee57829003601f168201915b50505050509250818054600181600116156101000203166002900480601f0160208091040260200160405190810160405280929190818152602001828054600181600116156101000203166002900480156110a75780601f1061107c576101008083540402835291602001916110a7565b820191906000526020600020905b81548152906001019060200180831161108a57829003601f168201915b505050505091509350935093509350611505565b6000809054906101000a900473ffffffffffffffffffffffffffffffffffffffff1673ffffffffffffffffffffffffffffffffffffffff163373ffffffffffffffffffffffffffffffffffffffff16141561140757600660008673ffffffffffffffffffffffffffffffffffffffff1673ffffffffffffffffffffffffffffffffffffffff168152602001908152602001600020600001600660008773ffffffffffffffffffffffffffffffffffffffff1673ffffffffffffffffffffffffffffffffffffffff168152602001908152602001600020600101600660008873ffffffffffffffffffffffffffffffffffffffff1673ffffffffffffffffffffffffffffffffffffffff168152602001908152602001600020600201600660008973ffffffffffffffffffffffffffffffffffffffff1673ffffffffffffffffffffffffffffffffffffffff16815260200190815260200160002060030160009054906101000a900460ff16838054600181600116156101000203166002900480601f0160208091040260200160405190810160405280929190818152602001828054600181600116156101000203166002900480156112bb5780601f10611290576101008083540402835291602001916112bb565b820191906000526020600020905b81548152906001019060200180831161129e57829003601f168201915b50505050509350828054600181600116156101000203166002900480601f0160208091040260200160405190810160405280929190818152602001828054600181600116156101000203166002900480156113575780601f1061132c57610100808354040283529160200191611357565b820191906000526020600020905b81548152906001019060200180831161133a57829003601f168201915b50505050509250818054600181600116156101000203166002900480601f0160208091040260200160405190810160405280929190818152602001828054600181600116156101000203166002900480156113f35780601f106113c8576101008083540402835291602001916113f3565b820191906000526020600020905b8154815290600101906020018083116113d657829003601f168201915b505050505091509350935093509350611505565b600660008673ffffffffffffffffffffffffffffffffffffffff1673ffffffffffffffffffffffffffffffffffffffff16815260200190815260200160002060030160009054906101000a900460ff166040805190810160405280600781526020017f5072697661746500000000000000000000000000000000000000000000000000815250906040805190810160405280600781526020017f5072697661746500000000000000000000000000000000000000000000000000815250906040805190810160405280600781526020017f50726976617465000000000000000000000000000000000000000000000000008152509093509350935093505b9193509193565b611514611a22565b61151c611a22565b611524611a22565b60008060009054906101000a900473ffffffffffffffffffffffffffffffffffffffff1673ffffffffffffffffffffffffffffffffffffffff163373ffffffffffffffffffffffffffffffffffffffff1614151561158157600080fd5b6000600660008773ffffffffffffffffffffffffffffffffffffffff1673ffffffffffffffffffffffffffffffffffffffff1681526020019081526020016000206002018054600181600116156101000203166002900490501115156115e657600080fd5b6001600660008773ffffffffffffffffffffffffffffffffffffffff1673ffffffffffffffffffffffffffffffffffffffff16815260200190815260200160002060030160006101000a81548160ff021916908315150217905550600660008673ffffffffffffffffffffffffffffffffffffffff1673ffffffffffffffffffffffffffffffffffffffff168152602001908152602001600020600001600660008773ffffffffffffffffffffffffffffffffffffffff1673ffffffffffffffffffffffffffffffffffffffff168152602001908152602001600020600101600660008873ffffffffffffffffffffffffffffffffffffffff1673ffffffffffffffffffffffffffffffffffffffff168152602001908152602001600020600201600660008973ffffffffffffffffffffffffffffffffffffffff1673ffffffffffffffffffffffffffffffffffffffff16815260200190815260200160002060030160009054906101000a900460ff16838054600181600116156101000203166002900480601f0160208091040260200160405190810160405280929190818152602001828054600181600116156101000203166002900480156117ec5780601f106117c1576101008083540402835291602001916117ec565b820191906000526020600020905b8154815290600101906020018083116117cf57829003601f168201915b50505050509350828054600181600116156101000203166002900480601f0160208091040260200160405190810160405280929190818152602001828054600181600116156101000203166002900480156118885780601f1061185d57610100808354040283529160200191611888565b820191906000526020600020905b81548152906001019060200180831161186b57829003601f168201915b50505050509250818054600181600116156101000203166002900480601f0160208091040260200160405190810160405280929190818152602001828054600181600116156101000203166002900480156119245780601f106118f957610100808354040283529160200191611924565b820191906000526020600020905b81548152906001019060200180831161190757829003601f168201915b5050505050915093509350935093509193509193565b60045481565b6000809054906101000a900473ffffffffffffffffffffffffffffffffffffffff1681565b608060405190810160405280611979611a36565b8152602001611986611a36565b8152602001611993611a36565b81526020016000151581525090565b828054600181600116156101000203166002900490600052602060002090601f016020900481019282601f106119e357805160ff1916838001178555611a11565b82800160010185558215611a11579182015b82811115611a105782518255916020019190600101906119f5565b5b509050611a1e9190611a4a565b5090565b602060405190810160405280600081525090565b602060405190810160405280600081525090565b611a6c91905b80821115611a68576000816000905550600101611a50565b5090565b905600a165627a7a72305820390c97e0426ec67e2c8f3493898891c94cb129641852a827431f83a8804100040029",
  "source": "pragma solidity ^0.4.4;\n\ncontract Event {\n  address public holder;\n  string  public name;\n  string  public location;\n  string  public date;\n  uint    public ticketNum = 0;\n  uint    public ticketPrice;\n\n  event ContractCreated();\n  event NewRegistration(string first, string last, string email, bool checkedin);\n  event CheckedIn(address buyer, bool checkedin);\n  \n  struct Attendee {\n    string    first;\n    string    last;\n    string    email;\n    bool      checkedin;\n  }\n\n  mapping(address => Attendee) private Attendees;\n\n  modifier isHolder() {\n    require(msg.sender == holder);\n    _;\n  }\n\n  function Event(string _name, string _location,string _date, uint _ticketNum, uint _ticketPrice) public payable {\n    // constructor\n    require(bytes(_name).length != 0);\n    require(bytes(_location).length != 0);\n    require(bytes(_date).length != 0);\n    require(_ticketNum != 0);\n    require(_ticketPrice >= 0);\n    \n    holder = msg.sender;\n    name = _name;\n    location = _location;\n    date = _date;\n    ticketNum = _ticketNum;\n    ticketPrice = _ticketPrice;\n\n    ContractCreated();\n  }\n\n  function register(string _first, string _last, string _email) public payable {\n    // constructor\n    require(ticketNum - 1 >= 0);\n    require(bytes(_first).length > 0);\n    require(bytes(_last).length > 0);\n    require(bytes(_email).length > 0);\n    require(msg.value >= ticketPrice);\n\n    Attendee memory currentAttendee;\n    currentAttendee.first = _first;\n    currentAttendee.last = _last;\n    currentAttendee.email = _email;\n    currentAttendee.checkedin = false;\n    \n    ticketNum = ticketNum - 1;\n    Attendees[msg.sender] = currentAttendee;\n\n    NewRegistration(Attendees[msg.sender].first, Attendees[msg.sender].last, Attendees[msg.sender].email, Attendees[msg.sender].checkedin);\n  }\n\n  // search with address\n  function search(address _buyer) \n    public \n    returns (string, string, string, bool)\n  {\n    require(bytes(Attendees[_buyer].email).length > 0);\n    if (msg.sender == _buyer) {\n      return (Attendees[_buyer].first, Attendees[_buyer].last, Attendees[_buyer].email, Attendees[_buyer].checkedin);\n    }\n    if (msg.sender == holder) {\n      return (Attendees[_buyer].first, Attendees[_buyer].last, Attendees[_buyer].email, Attendees[_buyer].checkedin);\n    }\n    return (\"Private\", \"Private\", \"Private\", Attendees[_buyer].checkedin);\n  }\n\n  function checkin(address _buyer) isHolder public returns (string, string, string, bool) {\n    require(bytes(Attendees[_buyer].email).length > 0);\n    Attendees[_buyer].checkedin = true;\n    return (Attendees[_buyer].first, Attendees[_buyer].last, Attendees[_buyer].email, Attendees[_buyer].checkedin);\n\n    CheckedIn(_buyer, Attendees[_buyer].checkedin);\n  }\n  \n}\n",
  "sourcePath": "/Users/andy/Projects/etherbrite/contracts/event-contract/contracts/Event.sol",
  "compiler": {
    "name": "solc",
    "version": "0.4.18+commit.9cf6e910.Emscripten.clang"
  },
  "schemaVersion": "1.0.1",
  "updatedAt": "2017-12-29T08:10:54.161Z"
}