{
  "contractName": "Event",
  "abi": [
    {
      "constant": true,
      "inputs": [],
      "name": "name",
      "outputs": [
        {
          "name": "",
          "type": "string"
        }
      ],
      "payable": false,
      "stateMutability": "view",
      "type": "function"
    },
    {
      "constant": true,
      "inputs": [],
      "name": "ticketPrice",
      "outputs": [
        {
          "name": "",
          "type": "uint256"
        }
      ],
      "payable": false,
      "stateMutability": "view",
      "type": "function"
    },
    {
      "constant": true,
      "inputs": [],
      "name": "time",
      "outputs": [
        {
          "name": "",
          "type": "string"
        }
      ],
      "payable": false,
      "stateMutability": "view",
      "type": "function"
    },
    {
      "constant": false,
      "inputs": [
        {
          "name": "_first",
          "type": "string"
        },
        {
          "name": "_last",
          "type": "string"
        },
        {
          "name": "_email",
          "type": "string"
        }
      ],
      "name": "register",
      "outputs": [
        {
          "name": "",
          "type": "string"
        }
      ],
      "payable": true,
      "stateMutability": "payable",
      "type": "function"
    },
    {
      "constant": true,
      "inputs": [],
      "name": "location",
      "outputs": [
        {
          "name": "",
          "type": "string"
        }
      ],
      "payable": false,
      "stateMutability": "view",
      "type": "function"
    },
    {
      "constant": true,
      "inputs": [],
      "name": "ticketNum",
      "outputs": [
        {
          "name": "",
          "type": "uint256"
        }
      ],
      "payable": false,
      "stateMutability": "view",
      "type": "function"
    },
    {
      "constant": true,
      "inputs": [
        {
          "name": "",
          "type": "address"
        }
      ],
      "name": "holder",
      "outputs": [
        {
          "name": "",
          "type": "address"
        },
        {
          "name": "last",
          "type": "string"
        },
        {
          "name": "email",
          "type": "string"
        },
        {
          "name": "checkin",
          "type": "bool"
        }
      ],
      "payable": false,
      "stateMutability": "view",
      "type": "function"
    },
    {
      "constant": true,
      "inputs": [
        {
          "name": "",
          "type": "address"
        },
        {
          "name": "_location",
          "type": "string"
        },
        {
          "name": "_time",
          "type": "string"
        },
        {
          "name": "_ticketNum",
          "type": "uint256"
        },
        {
          "name": "_ticketPrice",
          "type": "uint256"
        }
      ],
      "name": "Attendees",
      "outputs": [
        {
          "name": "first",
          "type": "string"
        },
        {
          "name": "last",
          "type": "string"
        },
        {
          "name": "email",
          "type": "string"
        },
        {
          "name": "checkin",
          "type": "bool"
        }
      ],
      "payable": false,
      "stateMutability": "view",
      "type": "function"
    },
    {
      "inputs": [
        {
          "name": "_name",
          "type": "string"
        },
        {
          "name": "_location",
          "type": "string"
        },
        {
          "name": "_time",
          "type": "string"
        },
        {
          "name": "_ticketNum",
          "type": "uint256"
        },
        {
          "name": "_ticketPrice",
          "type": "uint256"
        }
      ],
      "payable": true,
      "stateMutability": "payable",
      "type": "constructor"
    }
  ],
  "bytecode": "0x60606040526000600455604051610c14380380610c1483398101604052808051820191906020018051820191906020018051820191906020018051906020019091908051906020019091905050600085511415151561005d57600080fd5b600084511415151561006e57600080fd5b600083511415151561007f57600080fd5b6000821415151561008f57600080fd5b6000811415151561009f57600080fd5b336000806101000a81548173ffffffffffffffffffffffffffffffffffffffff021916908373ffffffffffffffffffffffffffffffffffffffff16021790555084600190805190602001906100f592919061013c565b50836002908051906020019061010c92919061013c565b50826003908051906020019061012392919061013c565b50816004819055508060058190555050505050506101e1565b828054600181600116156101000203166002900490600052602060002090601f016020900481019282601f1061017d57805160ff19168380011785556101ab565b828001600101855582156101ab579182015b828111156101aa57825182559160200191906001019061018f565b5b5090506101b891906101bc565b5090565b6101de91905b808211156101da5760008160009055506001016101c2565b5090565b90565b610a24806101f06000396000f30060606040526004361061008e576000357c0100000000000000000000000000000000000000000000000000000000900463ffffffff16806306fdde03146100935780631209b1f61461012157806316ada5471461014a5780634cd08d03146101d8578063516f279e146102b0578063aa099a6b1461033e578063e534155d14610367578063fbd705d6146103bc575b600080fd5b341561009e57600080fd5b6100a66105a8565b6040518080602001828103825283818151815260200191508051906020019080838360005b838110156100e65780820151818401526020810190506100cb565b50505050905090810190601f1680156101135780820380516001836020036101000a031916815260200191505b509250505060405180910390f35b341561012c57600080fd5b610134610646565b6040518082815260200191505060405180910390f35b341561015557600080fd5b61015d61064c565b6040518080602001828103825283818151815260200191508051906020019080838360005b8381101561019d578082015181840152602081019050610182565b50505050905090810190601f1680156101ca5780820380516001836020036101000a031916815260200191505b509250505060405180910390f35b6102ae600480803590602001908201803590602001908080601f0160208091040260200160405190810160405280939291908181526020018383808284378201915050505050509190803590602001908201803590602001908080601f0160208091040260200160405190810160405280939291908181526020018383808284378201915050505050509190803590602001908201803590602001908080601f016020809104026020016040519081016040528093929190818152602001838380828437820191505050505050919050506106ea565b005b34156102bb57600080fd5b6102c36107ff565b6040518080602001828103825283818151815260200191508051906020019080838360005b838110156103035780820151818401526020810190506102e8565b50505050905090810190601f1680156103305780820380516001836020036101000a031916815260200191505b509250505060405180910390f35b341561034957600080fd5b61035161089d565b6040518082815260200191505060405180910390f35b341561037257600080fd5b61037a6108a3565b604051808273ffffffffffffffffffffffffffffffffffffffff1673ffffffffffffffffffffffffffffffffffffffff16815260200191505060405180910390f35b34156103c757600080fd5b6103f3600480803573ffffffffffffffffffffffffffffffffffffffff169060200190919050506108c8565b604051808060200180602001806020018515151515815260200184810384528881815460018160011615610100020316600290048152602001915080546001816001161561010002031660029004801561048e5780601f106104635761010080835404028352916020019161048e565b820191906000526020600020905b81548152906001019060200180831161047157829003601f168201915b50508481038352878181546001816001161561010002031660029004815260200191508054600181600116156101000203166002900480156105115780601f106104e657610100808354040283529160200191610511565b820191906000526020600020905b8154815290600101906020018083116104f457829003601f168201915b50508481038252868181546001816001161561010002031660029004815260200191508054600181600116156101000203166002900480156105945780601f1061056957610100808354040283529160200191610594565b820191906000526020600020905b81548152906001019060200180831161057757829003601f168201915b505097505050505050505060405180910390f35b60018054600181600116156101000203166002900480601f01602080910402602001604051908101604052809291908181526020018280546001816001161561010002031660029004801561063e5780601f106106135761010080835404028352916020019161063e565b820191906000526020600020905b81548152906001019060200180831161062157829003601f168201915b505050505081565b60055481565b60038054600181600116156101000203166002900480601f0160208091040260200160405190810160405280929190818152602001828054600181600116156101000203166002900480156106e25780601f106106b7576101008083540402835291602001916106e2565b820191906000526020600020905b8154815290600101906020018083116106c557829003601f168201915b505050505081565b6106f2610902565b60006001600454031015151561070757600080fd5b838160000181905250828160200181905250818160400181905250600081606001901515908115158152505060016004540360048190555080600660003373ffffffffffffffffffffffffffffffffffffffff1673ffffffffffffffffffffffffffffffffffffffff168152602001908152602001600020600082015181600001908051906020019061079b92919061093f565b5060208201518160010190805190602001906107b892919061093f565b5060408201518160020190805190602001906107d592919061093f565b5060608201518160030160006101000a81548160ff02191690831515021790555090505050505050565b60028054600181600116156101000203166002900480601f0160208091040260200160405190810160405280929190818152602001828054600181600116156101000203166002900480156108955780601f1061086a57610100808354040283529160200191610895565b820191906000526020600020905b81548152906001019060200180831161087857829003601f168201915b505050505081565b60045481565b6000809054906101000a900473ffffffffffffffffffffffffffffffffffffffff1681565b60066020528060005260406000206000915090508060000190806001019080600201908060030160009054906101000a900460ff16905084565b6080604051908101604052806109166109bf565b81526020016109236109bf565b81526020016109306109bf565b81526020016000151581525090565b828054600181600116156101000203166002900490600052602060002090601f016020900481019282601f1061098057805160ff19168380011785556109ae565b828001600101855582156109ae579182015b828111156109ad578251825591602001919060010190610992565b5b5090506109bb91906109d3565b5090565b602060405190810160405280600081525090565b6109f591905b808211156109f15760008160009055506001016109d9565b5090565b905600a165627a7a72305820e903a7e2fd78ec7dacd02f2e8c0c21f1bf6d3f4376c1d1c0b604d2133f80d77a0029",
  "source": "pragma solidity ^0.4.4;\n\ncontract Event {\n  address public holder;\n  string  public name;\n  string  public location;\n  string  public time;\n  uint    public ticketNum = 0;\n  uint    public ticketPrice;\n  \n  struct Attendee {\n    string    first;\n    string    last;\n    string    email;\n    bool      checkin;\n  }\n\n  mapping(address => Attendee) public Attendees;\n\n  function Event(string _name, string _location,string _time, uint _ticketNum, uint _ticketPrice) public payable {\n    // constructor\n    require(bytes(_name).length != 0);\n    require(bytes(_location).length != 0);\n    require(bytes(_time).length != 0);\n    require(_ticketNum != 0);\n    require(_ticketPrice != 0);\n    \n    holder = msg.sender;\n    name = _name;\n    location = _location;\n    time = _time;\n    ticketNum = _ticketNum;\n    ticketPrice = _ticketPrice;\n  }\n\n  function register(string _first, string _last, string _email) public payable {\n    // constructor\n    require(ticketNum - 1 >= 0);\n\n    Attendee memory currentAttendee;\n    currentAttendee.first = _first;\n    currentAttendee.last = _last;\n    currentAttendee.email = _email;\n    currentAttendee.checkin = false;\n    \n    ticketNum = ticketNum - 1;\n    Attendees[msg.sender] = currentAttendee;\n  }\n  \n}\n",
  "sourcePath": "/Users/andy/Projects/etherbrite/contracts/event-contracts/contracts/Event.sol",
  "compiler": {
    "name": "solc",
    "version": "0.4.18+commit.9cf6e910.Emscripten.clang"
  },
  "schemaVersion": "1.0.1",
  "updatedAt": "2017-12-26T02:31:11.863Z"
}